:020000040000fa
:080000000002040000000000f2
:020000040000fa
:04000800d6710000ad
:020000040000fa
:04000c002671000059
:020000040000fa
:040010003c7100003f
:020000040000fa
:040014005271000025
:020000040000fa
:04001800687100000b
:020000040000fa
:04001c00d671000099
:020000040000fa
:04002000d671000095
:020000040000fa
:04002400d671000091
:020000040000fa
:04002800b42a0000f6
:020000040000fa
:04002c00d671000089
:020000040000fa
:04003000a66a0000bc
:020000040000fa
:040034005e66000004
:020000040000fa
:04003800d67100007d
:020000040000fa
:04003c00d671000079
:020000040000fa
:04004000d671000075
:020000040000fa
:0400440066660000ec
:020000040000fa
:04004800d67100006d
:020000040000fa
:04004c00d671000069
:020000040000fa
:04005000d671000065
:020000040000fa
:040054005c28000024
:020000040000fa
:04005800d67100005d
:020000040000fa
:04005c00d671000059
:020000040000fa
:04006000d671000055
:020000040000fa
:04006400d671000051
:020000040000fa
:04006800d67100004d
:020000040000fa
:04006c00d671000049
:020000040000fa
:04007000d671000045
:020000040000fa
:04007400c62a000098
:020000040000fa
:040078006e290000ed
:020000040000fa
:04007c00d671000039
:020000040000fa
:04008000d671000035
:020000040000fa
:04008400d671000031
:020000040000fa
:04008800d67100002d
:020000040000fa
:04008c00d671000029
:020000040000fa
:04009000d671000025
:020000040000fa
:04009400d671000021
:020000040000fa
:04009800d67100001d
:020000040000fa
:04009c00a828000090
:020000040000fa
:0400a000182800001c
:020000040000fa
:0400a400d671000011
:020000040000fa
:0400a800d67100000d
:020000040000fa
:0400ac00d671000009
:020000040000fa
:0400b000d671000005
:020000040000fa
:0400b400d671000001
:020000040000fa
:0400b800d6710000fd
:020000040000fa
:0400bc00d6710000f9
:020000040000fa
:0400c000d6710000f5
:020000040000fa
:0400c400d6710000f1
:020000040000fa
:0400c800d6710000ed
:020000040000fa
:0400cc00d6710000e9
:020000040000fa
:0400d000d6710000e5
:020000040000fa
:0400d400d6710000e1
:020000040000fa
:0400d800d6710000dd
:020000040000fa
:0400dc00d6710000d9
:020000040000fa
:0400e000d6710000d5
:020000040000fa
:0400e400d6710000d1
:020000040000fa
:0400e800d6710000cd
:020000040000fa
:0400ec00d6710000c9
:020000040000fa
:0400f000d402000036
:020000040000fa
:0400f400d6710000c1
:020000040000fa
:0400f800d6710000bd
:020000040000fa
:0400fc006c2a00006a
:020000040000fa
:04010000d6710000b4
:020000040000fa
:04010400d6710000b0
:020000040000fa
:04010800d6710000ac
:020000040000fa
:04010c00d6710000a8
:020000040000fa
:04011000d6710000a4
:020000040000fa
:04011400d6710000a0
:020000040000fa
:04011800d67100009c
:020000040000fa
:04011c00d671000098
:020000040000fa
:04012000d671000094
:020000040000fa
:04012400d671000090
:020000040000fa
:04012800d67100008c
:020000040000fa
:04012c00d671000088
:020000040000fa
:04013000d671000084
:020000040000fa
:04013400d671000080
:020000040000fa
:04013800d67100007c
:020000040000fa
:04013c00d671000078
:020000040000fa
:04014000d671000074
:020000040000fa
:04014400d671000070
:020000040000fa
:04014800d67100006c
:020000040000fa
:04014c00d671000068
:020000040000fa
:04015000d671000064
:020000040000fa
:04015400d671000060
:020000040000fa
:04015800d67100005c
:020000040000fa
:04015c00d671000058
:020000040000fa
:04016000d671000054
:020000040000fa
:04016400d671000050
:020000040000fa
:04016800d67100004c
:020000040000fa
:04016c00d671000048
:020000040000fa
:04017000b2270000b2
:020000040000fa
:04017400d671000040
:020000040000fa
:04017800d67100003c
:020000040000fa
:04017c00d671000038
:020000040000fa
:04018000d671000034
:020000040000fa
:04018400d671000030
:020000040000fa
:04018800d67100002c
:020000040000fa
:04018c00d671000028
:020000040000fa
:04019000d671000024
:020000040000fa
:04019400d671000020
:020000040000fa
:04019800d67100001c
:020000040000fa
:04019c00d671000018
:020000040000fa
:04020800d6710000ab
:020000040000fa
:04020c007e710000ff
:020000040000fa
:0402100094710000e5
:020000040000fa
:04021400aa710000cb
:020000040000fa
:04021800c0710000b1
:020000040000fa
:04021c00d671000097
:020000040000fa
:04022000d671000093
:020000040000fa
:04022400d67100008f
:020000040000fa
:04022800d67100008b
:020000040000fa
:04022c00d671000087
:020000040000fa
:04023000d671000083
:020000040000fa
:04023400d67100007f
:020000040000fa
:04023800d67100007b
:020000040000fa
:04023c00d671000077
:020000040000fa
:04024000d671000073
:020000040000fa
:04024400d67100006f
:020000040000fa
:04024800d67100006b
:020000040000fa
:04024c00d671000067
:020000040000fa
:04025000d671000063
:020000040000fa
:04025400d67100005f
:020000040000fa
:04025800d67100005b
:020000040000fa
:04025c00d671000057
:020000040000fa
:04026000d671000053
:020000040000fa
:04026400d67100004f
:020000040000fa
:04026800d67100004b
:020000040000fa
:04026c00d671000047
:020000040000fa
:04027000d671000043
:020000040000fa
:04027400d67100003f
:020000040000fa
:04027800d67100003b
:020000040000fa
:04027c00d671000037
:020000040000fa
:04028000d671000033
:020000040000fa
:04028400d67100002f
:020000040000fa
:04028800d67100002b
:020000040000fa
:04028c00d671000027
:020000040000fa
:04029000d671000023
:020000040000fa
:04029400d67100001f
:020000040000fa
:04029800d67100001b
:020000040000fa
:04029c00d671000017
:020000040000fa
:0402a000d671000013
:020000040000fa
:0402a400d67100000f
:020000040000fa
:0402a800d67100000b
:020000040000fa
:0402ac00d671000007
:020000040000fa
:0402b000d671000003
:020000040000fa
:0402b400d6710000ff
:020000040000fa
:0402b800d6710000fb
:020000040000fa
:0402bc00d6710000f7
:020000040000fa
:0402c000d6710000f3
:020000040000fa
:0402c400d6710000ef
:020000040000fa
:0402c800d6710000eb
:020000040000fa
:0402cc00d6710000e7
:020000040000fa
:0402d000d6710000e3
:020000040000fa
:0402d400d6710000df
:020000040000fa
:0402d800d6710000db
:020000040000fa
:0402dc00d6710000d7
:020000040000fa
:0402e000d6710000d3
:020000040000fa
:0402e400d6710000cf
:020000040000fa
:0402e800d6710000cb
:020000040000fa
:0402ec00d6710000c7
:020000040000fa
:0402f000d6710000c3
:020000040000fa
:0402f400d6710000bf
:020000040000fa
:0402f800d6710000bb
:020000040000fa
:0402fc00d6710000b7
:020000040000fa
:04030000d6710000b2
:020000040000fa
:04030400d6710000ae
:020000040000fa
:04030800d6710000aa
:020000040000fa
:04030c00d6710000a6
:020000040000fa
:04031000d6710000a2
:020000040000fa
:04031400d67100009e
:020000040000fa
:04031800d67100009a
:020000040000fa
:04031c00d671000096
:020000040000fa
:04032000d671000092
:020000040000fa
:04032400d67100008e
:020000040000fa
:04032800d67100008a
:020000040000fa
:04032c00d671000086
:020000040000fa
:04033000d671000082
:020000040000fa
:04033400d67100007e
:020000040000fa
:04033800d67100007a
:020000040000fa
:04033c00d671000076
:020000040000fa
:04034000d671000072
:020000040000fa
:04034400d67100006e
:020000040000fa
:04034800d67100006a
:020000040000fa
:04034c00d671000066
:020000040000fa
:04035000d671000062
:020000040000fa
:04035400d67100005e
:020000040000fa
:04035800d67100005a
:020000040000fa
:04035c00d671000056
:020000040000fa
:04036000d671000052
:020000040000fa
:04036400d67100004e
:020000040000fa
:04036800d67100004a
:020000040000fa
:04036c00d671000046
:020000040000fa
:04037000d671000042
:020000040000fa
:04037400d67100003e
:020000040000fa
:04037800d67100003a
:020000040000fa
:04037c00d671000036
:020000040000fa
:04038000d671000032
:020000040000fa
:04038400d67100002e
:020000040000fa
:04038800d67100002a
:020000040000fa
:04038c00d671000026
:020000040000fa
:04039000d671000022
:020000040000fa
:04039400d67100001e
:020000040000fa
:04039800d67100001a
:020000040000fa
:04039c00d671000016
:020000040000fa
:10040000af3f22000e7f24000e0188000000000094
:10041000000020000000e000020032000001200087
:100420002002880014000700933a07000000e00053
:1004300003003a0020592300210020000200370069
:100440000000200001002000810f70000100320038
:1004500014000700000020000000e000020032004d
:100460000000020000000000862b020000000000d7
:100470000040da000000fe004440a900a0bc2200b9
:100480000000e0000300320010002000a0018800fe
:100490004440a800000006008a1f78008b1f7800e7
:1004a0000000060091018800800478000000eb0045
:1004b0001a003700e284440032a0b4009905ba0063
:1004c000e284440032a0b4009906ba00e2844400f9
:1004d00032a0b4000006eb00476fde00fd07b2005b
:1004e000636ce10003003a00ebff07000000eb0043
:1004f0000a003700606ce10004003a00005deb0088
:100500008b05e900fdff3e00040037006168e10053
:10051000010032000086eb000b00070019c7ba008b
:100520001905ba000e04e00003003a000a00e000da
:10053000e0ff3a0000000600fe07b2009e018800be
:100540008a047800f5ff3700395dba008b05e900b1
:100550000c003200295dba008b05e900080032006a
:100560000c00e00003003a00e284440032a0b40032
:10057000f5ff370019ddba008b05e900faff3a00f4
:100580008904e800e184440032a0b40000000600c1
:10059000c68804000000000010980400000000005d
:1005a0007a7d0400000000000000fa008a40a900e3
:1005b0000080fa00004006002400fa00101798009e
:1005c0000040eb00004f78000000eb00100798009f
:1005d0000000eb00200798000000eb0030079800b7
:1005e0000040eb0010479800080037001e409000c4
:1005f0000080fb000000470031c2b30001489800b2
:100600001e4090000040e800104798001e409000f7
:10061000f84f5000f5ff36000040eb00004f780027
:100620000040eb00004f7800231207001e109000de
:100630008000eb004207200003002000820f5000e2
:10064000838f5800ef093e000060010074003700fe
:10065000ee003700150137003c0137006301370019
:100660007f0137009b013700bb013700e2013700f3
:100670000902370030023700e4093700560237001c
:100680007d023700a5023700e0093700cd023700b0
:10069000f4023700dd0937001a033700370337004b
:1006a0005e03370085033700a6033700d7093700fc
:1006b000d6093700d5093700c0033700d309370002
:1006c000d2093700e50337000c0437003304370044
:1006d000ce093700cd093700cc093700cb093700e8
:1006e000ca093700c90937005404370080043700ad
:1006f0009c043700c3043700c4093700c30937001e
:10070000c2093700e9043700c0093700bf093700c4
:100710001a053700bd093700bc093700400537000e
:10072000ba093700b9093700b8093700630537003f
:100730007f053700b5093700b4093700b309370022
:10074000b2093700b1093700a3053700ca053700e1
:10075000eb0537001206370039063700ab093700c2
:100760005f06370087063700a6063700cc0637003d
:10077000f3063700cc083700a4093700fd0837001e
:100780000c0937001b0937002f093700f008370024
:100790003d0937009d0937009c0937009b09370048
:1007a0009a093700990937002107370035073700c4
:1007b000960937009509370050073700780737004a
:1007c000a10737009109370090093700c8073700a3
:1007d0008e0937008d0937004c003700d2073700eb
:1007e000f6073700090837008809370087093700fe
:1007f0008609370085093700840937002b08370040
:100800007609370081093700800937004f08370023
:10081000760837007e083700860837008e083700d4
:10082000500f2000100798001e80fb0000004700ba
:1008300031c5b300014898001e4fe8001e80fb0040
:100840000000470011c4b300014898001e4fe800a3
:100850001e80fb000000470021c5b300014898003e
:100860001e4fe8001e80fb000000470061c5b3007a
:10087000014898001e4fe8001e80fb000000470062
:1008800011c4b300014898001e4fe8001e80fb0011
:1008900000004700a1c4b300014898001e4fe800c3
:1008a0001e80fb000000470011c4b30001489800ff
:1008b0001e4fe8001e80fb0000004700c1c4b300cb
:1008c000014898001e4fe800b2002000e14e2c00c5
:1008d000602021009e7d02000000000010c0b300d7
:1008e000c42f02000200000012012000914f2c00d2
:1008f000602021009e7d02000000000020c0b300a7
:10090000c42f020002000000ab093700500f200086
:10091000100798001e80fb00000047008040eb009d
:10092000014898001e4fe8001e80fb0000004700b1
:100930008040eb00014898001e4fe8001e80fb003d
:10094000000047008040eb00014898001e4fe8007f
:100950001e80fb00000047008040eb00014898002b
:100960001e4fe8001e80fb00000047008040eb00a7
:10097000014898001e4fe8001e80fb000000470061
:100980008040eb00014898001e4fe8001e80fb00ed
:10099000000047008040eb00014898001e4fe8002f
:1009a0001e80fb00000047008040eb0001489800db
:1009b0001e4fe800714a8000c007200000806000e0
:1009c000f40f500013093a00b2002000e14e2c0051
:1009d000602021009e7d02000000000010c0b300d6
:1009e000c42f020002000000680047008000780069
:1009f000602021001e7f02000000000020c0b30024
:100a0000c42f0200020000006b0937000000eb0059
:100a1000100798001e80fb00f14b8000c808de0024
:100a20008140780000004700014898001e4fe80010
:100a30001e80fb00f14b80008140780000004700e1
:100a4000014898001e4fe800714a8000c00720004e
:100a500000806000f40f5000f0083a00020120000e
:100a6000a1502c00602021009e7d020000000000ab
:100a700010c0b300c42f020002000000f04b800041
:100a8000801f7800a0512c00801f7800602021007a
:100a9000d488020000000000e487570020c0b300a3
:100aa000c42f02000200000043093700300020007c
:100ab000100798001e80fb00114d8000c808de0062
:100ac0008140780000004700014898001e4fe80070
:100ad0001e80fb00114d800081407800000047001f
:100ae000014898001e4fe800714a8000c0072000ae
:100af00000806000f40f5000ca083a000201200094
:100b0000d1512c00602021009e7d020000000000d9
:100b100010c0b300c42f020002000000104d80007e
:100b2000801f7800a0512c00801f780060202100d9
:100b3000d488020000000000e487570020c0b30002
:100b4000c42f0200020000001b09370060002000d3
:100b5000100798001e80fb00214d8000c808de00b1
:100b60008140780000004700014898001e4fe800cf
:100b70001e80fb00214d800081407800000047006e
:100b8000014898001e4fe800714a8000c00720000d
:100b900000806000f40f5000a4083a00f20020002a
:100ba000d1522c00602021009e7d02000000000038
:100bb00010c0b300c42f020002000000204d8000ce
:100bc000801f7800a0512c00801f78006020210039
:100bd000d488020000000000e487570020c0b30062
:100be000c42f020002000000f3083700900020002c
:100bf00010079800a1162100680047001e7f020020
:100c00000000000040c1b300004f7800714a80002e
:100c1000c007200000806000f40f500085083a00f3
:100c200072002000c1532c00602021009e7d020034
:100c30000000000010c0b300c42f0200020000003a
:100c4000a1162100602021001e7f0200000000008c
:100c500020c0b300c42f020002000000d6083700f5
:100c6000e0012000100798003118210068004700bb
:100c70001e7f02000000000060c0b300004f78003b
:100c8000714a8000c007200000806000f40f50000f
:100c90006a083a00c200200031542c006020210074
:100ca0009e7d02000000000010c0b300c42f0200af
:100cb0000200000031182100602021001e7f020088
:100cc0000000000020c0b300c42f0200020000009a
:100cd000b908370040022000100798009118210041
:100ce000680047001e7f02000000000090c1b300b2
:100cf000004f7800714a8000c0072000008060002b
:100d0000f40f50004f083a0082002000f1542c00ec
:100d1000602021009e7d02000000000010c0b30092
:100d2000c42f02000200000090182100801f7800ec
:100d300070552c00801f780060202100d4880200ac
:100d400000000000e487570020c0b300c42f020059
:100d50000200000098083700e00320001007980008
:100d60001e80fb00e14b8000c808de008140780057
:100d700000004700014898001e4fe8001e80fb005d
:100d8000e14b800081407800000047000148980056
:100d90001e4fe800714a8000c007200000806000fc
:100da000f40f500029083a00f2002000d1552c0021
:100db000602021009e7d02000000000010c0b300f2
:100dc000c42f020002000000e04b8000801f78006a
:100dd000a0512c00801f780060202100d4880200e0
:100de00000000000e487570020c0b300c42f0200b9
:100df000020000007008370010042000100798005f
:100e00001e80fb00d14b8000c808de0081407800c6
:100e100000004700014898001e4fe8001e80fb00bc
:100e2000d14b8000814078000000470001489800c5
:100e30001e4fe800714a8000c0072000008060005b
:100e4000f40f500003083a00f2002000c1562c00b5
:100e5000602021009e7d02000000000010c0b30051
:100e6000c42f020002000000d04b8000801f7800d9
:100e7000a0512c00801f780060202100d48802003f
:100e800000000000e487570020c0b300c42f020018
:100e900002000000480837004004200010079800b6
:100ea0001e80fb00714c8000c808de008140780085
:100eb00000004700014898001e4fe8001e80fb001c
:100ec000714c800081407800000047000148980084
:100ed0001e4fe800714a8000c007200000806000bb
:100ee000f40f5000dd073a00e2002000b1572c005b
:100ef000602021009e7d02000000000010c0b300b1
:100f0000c42f020002000000704c8000801f780097
:100f1000a0512c00801f780060202100d48802009e
:100f200000000000e487570020c0b300c42f020077
:100f3000020000002008370070042000100798000d
:100f40001e80fb00814c8000c808de0081407800d4
:100f500000004700014898001e4fe8001e80fb007b
:100f6000814c8000814078000000470001489800d3
:100f70001e4fe800714a8000c0072000008060001a
:100f8000f40f5000b7073a001201200091582c00ce
:100f9000602021009e7d02000000000010c0b30010
:100fa000c42f020002000000804c8000801f7800e7
:100fb000a0512c00801f780060202100d4880200fe
:100fc00000000000e487570020c0b300c42f0200d7
:100fd00002000000f80737002005200010079800e5
:100fe0001e80fb00e1db8000e1c0600000004700e4
:100ff000014898001e4fe800714a8000c007200099
:1010000000806000f40f500098073a00f2002000c2
:10101000a1592c00602021009e7d020000000000ec
:1010200010c0b300c42f020002000000e0db80000b
:10103000610060000000e000060032008200200035
:10104000915a2c00602021009e7d020000000000cb
:101050000500370092002000115b2c006020210069
:101060009e7d02000000000020c0b300c42f0200db
:1010700002000000d007370050052000100798003c
:101080001e80fb00e1db80008100d100e1c0600038
:1010900000004700014898001e4fe800714a800098
:1010a000c007200000806000f40f500071073a0074
:1010b000c2002000a15b2c00602021009e7d020068
:1010c0000000000010c0b300c42f020002000000a6
:1010d000e0db8000620060000000e00006003200fb
:1010e00082002000915a2c00602021009e7d020089
:1010f000000000000500370092002000115b2c006a
:10110000602021009e7d02000000000020c0b3008e
:10111000c42f020002000000a7073700800520004e
:10112000100798001e80fb00e1db8000c808de008d
:10113000e3c0600000004700014898001e4fe8002f
:10114000714a8000c007200000806000f40f50004a
:101150004a073a0002012000615c2c006020210057
:101160009e7d02000000000010c0b300c42f0200ea
:1011700002000000e1db8000003020000080600001
:101180000000e0000600320082002000915a2c008e
:10119000602021009e7d0200000000000500370055
:1011a00092002000115b2c00602021009e7d020037
:1011b0000000000020c0b300c42f020002000000a5
:1011c0007d073700e0052000100798001e80fb0017
:1011d000614d8000c808de008140780000004700b3
:1011e000014898001e4fe8001e80fb00614d800002
:1011f0008140780000004700014898001e4fe80039
:10120000714a8000c007200000806000f40f500089
:101210001c073a0012012000615d2c0060202100b3
:101220009e7d02000000000010c0b300c42f020029
:1012300002000000604d8000801f7800a0512c004b
:10124000801f780060202100d48802000000000088
:10125000e487570020c0b300c42f02000200000042
:101260005507370020062000100798001e80fb005d
:10127000d14c8000c808de008140780000004700a3
:10128000014898001e4fe8001e80fb00d14c8000f2
:101290008140780000004700014898001e4fe80098
:1012a000714a8000c007200000806000f40f5000e9
:1012b000f6063a0012012000715e2c006020210029
:1012c0009e7d02000000000010c0b300c42f020089
:1012d00002000000d04c8000801f7800a0512c003c
:1012e000801f780060202100d488020000000000e8
:1012f000e487570020c0b300c42f020002000000a2
:101300002d073700a006200010079800680047004e
:10131000312a22001e7f02000000000050c0b300ee
:10132000004f7800714a8000c007200000806000f4
:10133000f40f5000d7063a00e2002000815f2c0035
:10134000602021009e7d02000000000010c0b3005c
:10135000c42f02000200000012012000914f2c0057
:10136000602021009e7d02000000000020c0b3002c
:10137000c42f0200020000000f07370010072000f2
:10138000100798001e80fb00e14c8000c808de00ba
:101390008140780000004700014898001e4fe80097
:1013a0001e80fb00e14c8000814078000000470077
:1013b000014898001e4fe800714a8000c0072000d5
:1013c00000806000f40f5000b4063a0012012000c3
:1013d00061602c00602021009e7d02000000000062
:1013e00010c0b300c42f020002000000e04c8000d7
:1013f000801f7800a0512c00801f78006020210001
:10140000d488020000000000e487570020c0b30029
:10141000c42f020002000000e7063700500720003a
:10142000100798001e80fb00f14c8000c808de0009
:101430008140780000004700014898001e4fe800f6
:101440001e80fb00f14c80008140780000004700c6
:10145000014898001e4fe800714a8000c007200034
:1014600000806000f40f50008e063a001201200048
:1014700071612c00602021009e7d020000000000b0
:1014800010c0b300c42f020002000000f04c800026
:10149000801f7800a0512c00801f78006020210060
:1014a000d488020000000000e487570020c0b30089
:1014b000c42f020002000000bf0637009007200082
:1014c000100798001e80fb00c14a8000c708de009c
:1014d000e1c0600000004700014898001e4fe8008e
:1014e000714a8000c007200000806000f40f5000a7
:1014f0006e063a00c14a80000008200000806000ab
:101500000000e00006003200e200200081622c00b2
:10151000602021009e7d02000000000005003700d1
:101520001201200061632c00602021009e7d0200da
:101530000000000010c0b300c42f02000200000031
:101540009d063700c007200010079800680047007c
:10155000e12922001e7f02000000000050c0b300fd
:10156000004f7800714a8000c007200000806000b2
:10157000f40f50004f063a002201200071642c0045
:10158000602021009e7d02000000000010c0b3001a
:10159000c42f02000200000012012000914f2c0015
:1015a000602021009e7d02000000000020c0b300ea
:1015b000c42f0200020000007f0637003008200020
:1015c000100798001e80fb00514b8000c808de0009
:1015d0008140780000004700014898001e4fe80055
:1015e0001e80fb00514b80008140780000004700c6
:1015f000014898001e4fe800714a8000c007200093
:1016000000806000f40f50002c063a00d200200049
:1016100091652c00602021009e7d020000000000ea
:1016200010c0b300c42f020002000000504b800025
:10163000801f7800a0512c00801f780060202100be
:10164000d488020000000000e487570020c0b300e7
:10165000c42f020002000000570637006008200077
:10166000100798001e80fb00a14c8000c808de0017
:101670008140780000004700014898001e4fe800b4
:101680001e80fb00a14c80008140780000004700d4
:10169000014898001e4fe800714a8000c0072000f2
:1016a00000806000f40f500006063a00e2002000bf
:1016b00061662c00602021009e7d02000000000079
:1016c00010c0b300c42f020002000000a04c800034
:1016d000801f7800a0512c00801f7800602021001e
:1016e000d488020000000000e487570020c0b30047
:1016f000c42f0200020000002f063700a0082000bf
:10170000100798001e80fb00b14c8000c808de0066
:101710008140780000004700014898001e4fe80013
:101720001e80fb00b14c8000814078000000470023
:10173000014898001e4fe800714a8000c007200051
:1017400000806000f40f5000e0053a000201200024
:1017500041672c00602021009e7d020000000000f7
:1017600010c0b300c42f020002000000b04c800083
:10177000801f7800a0512c00801f7800602021007d
:10178000d488020000000000e487570020c0b300a6
:10179000c42f02000200000007063700e008200006
:1017a000100798001e80fb00c14c8000c808de00b6
:1017b0008140780000004700014898001e4fe80073
:1017c0001e80fb00c14c8000814078000000470073
:1017d000014898001e4fe800714a8000c0072000b1
:1017e00000806000f40f5000ba053a00120120009a
:1017f00041682c00602021009e7d02000000000056
:1018000010c0b300c42f020002000000c04c8000d2
:10181000801f7800a0512c00801f780060202100dc
:10182000d488020000000000e487570020c0b30005
:10183000c42f020002000000df053700500920001d
:1018400010079800714a8000c007200000806000e7
:10185000f40f5000a1053a00c200200051692c008d
:10186000602021009e7d02000000000010c0b30037
:10187000c42f020002000000714a8000c00720004f
:1018800000806000f40f50000b003a00820020003e
:10189000915a2c00602021009e7d02000000000073
:1018a0001e80fb000000470011c0b30001489800f3
:1018b0001e4fe8000a00370092002000115b2c0048
:1018c000602021009e7d0200000000001e80fb00c1
:1018d000000047008040eb00014898001e4fe800e0
:1018e00020c0b300c42f020002000000b205370080
:1018f0008009200010079800680047004128220056
:101900001e7f020000000000b0c0b300004f78004e
:10191000714a8000c007200000806000f40f500072
:1019200070053a00b2002000116a2c0060202100ee
:101930009e7d02000000000010c0b300c42f020012
:101940000200000041282200602021001e7f0200ca
:101950000000000020c0b300c42f020002000000fd
:1019600095053700500a2000100798001e80fb00e4
:10197000914c8000c808de008140780000004700dc
:10198000014898001e4fe8001e80fb00914c80002b
:101990008140780000004700014898001e4fe80091
:1019a000714a8000c007200000806000f40f5000e2
:1019b0004e053a00f2002000c16a2c006020210090
:1019c0009e7d02000000000010c0b300c42f020082
:1019d00002000000904c8000801f7800a0512c0075
:1019e000801f780060202100d488020000000000e1
:1019f000e487570020c0b300c42f0200020000009b
:101a00006d053700900a2000100798001e80fb002b
:101a1000e1db8000cb08de00e1c060000000470091
:101a2000014898001e4fe800714a8000c00720005e
:101a300000806000f40f50002e053a0002012000e3
:101a4000b16b2c00602021009e7d02000000000090
:101a500010c0b300c42f020002000000e1db8000d0
:101a600000802000008060000000e00006003200de
:101a700082002000915a2c00602021009e7d0200ef
:101a8000000000000500370092002000115b2c00d0
:101a9000602021009e7d02000000000020c0b300f5
:101aa000c42f02000200000043053700c00a2000d6
:101ab00010079800714a8000c00720000080600075
:101ac000f80f500007003a004e09a8001e80fb00e6
:101ad0000000470011c0b300014898001e4fe80005
:101ae000060037004e09a9001e80fb0000004700d9
:101af0008040eb00014898001e4fe800714a8000ca
:101b0000c007200000806000f40f5000fb043a0082
:101b100012012000b16c2c00602021009e7d02008b
:101b20000000000010c0b300c42f0200020000003b
:101b3000704a8000610060000000e0000600320092
:101b400082002000915a2c00602021009e7d02001e
:101b5000000000000500370092002000115b2c00ff
:101b6000602021009e7d02000000000020c0b30024
:101b7000c42f0200020000000f053700200b2000d8
:101b8000100798001e80fb00614a8000c208de003a
:101b9000e1c0600000004700014898001e4fe800c7
:101ba000714a8000c007200000806000f40f5000e0
:101bb000d4043a00c2002000c16d2c006020210036
:101bc0009e7d02000000000010c0b300c42f020080
:101bd00002000000604a8000640060000000e00035
:101be0000600320082002000915a2c006020210063
:101bf0009e7d0200000000000500370092002000da
:101c0000115b2c00602021009e7d0200000000007e
:101c100020c0b300c42f020002000000e604370019
:101c2000500b2000100798001e80fb00e18b200065
:101c30009140780000004700014898001e4fe800de
:101c4000714a8000c007200000806000f40f50003f
:101c5000ae043a00d2002000816e2c0060202100ea
:101c60009e7d02000000000010c0b300c42f0200df
:101c700002000000bec8bf000004e0000600320001
:101c800082002000915a2c00602021009e7d0200dd
:101c9000000000000500370092002000115b2c00be
:101ca000602021009e7d02000000000020c0b300e3
:101cb000c42f020002000000bf043700000e200005
:101cc00010079800f1282200680047001e7f0200dc
:101cd00000000000f0c0b300004f7800714a80009f
:101ce000c007200000806000f40f500089043a0013
:101cf00002012000516f2c00602021009e7d020017
:101d00000000000010c0b300c42f02000200000059
:101d1000f1282200602021001e7f02000000000048
:101d200020c0b300c42f020002000000a20437004c
:101d3000000f2000100798001e80fb00c14a8000a1
:101d4000cb08de00e1c060000000470001489800b9
:101d50001e4fe800714a8000c0072000008060002c
:101d6000f40f50006d043a000201200051702c0065
:101d7000602021009e7d02000000000010c0b30022
:101d8000c42f020002000000c14a80000080200031
:101d9000008060000000e0000600320082002000a9
:101da000915a2c00602021009e7d0200000000005e
:101db0000500370092002000115b2c0060202100fc
:101dc0009e7d02000000000020c0b300c42f02006e
:101dd000020000007804370050102000100798001f
:101de0001e80fb00514c8000c808de008140780056
:101df00000004700014898001e4fe8001e80fb00cd
:101e0000514c800081407800000047000148980054
:101e10001e4fe800714a8000c0072000008060006b
:101e2000f40f50003f043a001201200051712c00c1
:101e3000602021009e7d02000000000010c0b30061
:101e4000c42f020002000000504c8000801f780068
:101e5000a0512c00801f780060202100d48802004f
:101e600000000000e487570020c0b300c42f020028
:101e70000200000050043700901020001007980066
:101e80001e80fb00c19820009140780000004700b0
:101e9000014898001e4fe800714a8000c0072000ea
:101ea00000806000f40f500020043a00220120005e
:101eb00061722c00602021009e7d02000000000065
:101ec00010c0b300c42f0200020000008cc9bf0084
:101ed0000080fb00801f7800a0512c00801f78003c
:101ee00060202100d488020000000000e487570031
:101ef00020c0b300c42f0200020000002e043700ef
:101f0000c0102000100798001e80fb00f1db80004d
:101f1000e1c0600000004700014898001e4fe80043
:101f2000714a8000c007200000806000f40f50005c
:101f300000043a001201200081732c00602021006f
:101f40009e7d02000000000010c0b300c42f0200fc
:101f500002000000f0db8000610060000000e00093
:101f60000600320082002000915a2c0060202100df
:101f70009e7d020000000000050037009200200056
:101f8000115b2c00602021009e7d020000000000fb
:101f900020c0b300c42f0200020000000604370076
:101fa00070112000100798001e80fb00814b8000fc
:101fb000c808de0081407800000047000148980012
:101fc0001e4fe8001e80fb00814b8000814078009e
:101fd00000004700014898001e4fe800714a800049
:101fe000c007200000806000f40f5000d3033a00c7
:101ff000f200200091742c00602021009e7d0200e0
:102000000000000010c0b300c42f02000200000056
:10201000804b8000801f7800a0512c00801f78002a
:1020200060202100d488020000000000e4875700ef
:1020300020c0b300c42f020002000000de033700fe
:1020400030112000100798001e80fb00914b80008b
:10205000c808de0081407800000047000148980071
:102060001e4fe8001e80fb00914b800081407800ed
:1020700000004700014898001e4fe800714a8000a8
:10208000c007200000806000f40f5000ad033a004c
:10209000e200200081752c00602021009e7d02005e
:1020a0000000000010c0b300c42f020002000000b6
:1020b000904b8000801f7800a0512c00801f78007a
:1020c00060202100d488020000000000e48757004f
:1020d00020c0b300c42f020002000000b603370086
:1020e000b0112000100798001e80fb00b14a80004c
:1020f000c308de00e1c0600000004700014898000e
:102100001e4fe800714a8000c00720000080600078
:10211000f40f50008d033a001201200061762c006c
:10212000602021009e7d02000000000010c0b3006e
:10213000c42f020002000000b04a80006800600066
:102140000000e0000600320082002000915a2c00be
:10215000602021009e7d0200000000000500370085
:1021600092002000115b2c00602021009e7d020067
:102170000000000020c0b300c42f020002000000d5
:102180008d033700e01120001007980081ab21007b
:10219000680047001e7f02000000000090c0b300ee
:1021a000004f7800714a8000c00720000080600066
:1021b000f40f500067033a00582f0200020000009d
:1021c0001201200071772c00602021009e7d02000a
:1021d0000000000010c0b300c42f02000200000085
:1021e00080ab210080007800602021001e7f02006b
:1021f0000000000020c0b300c42f02000200000055
:102200006d033700c0122000100798001e80fb00ed
:10221000018c2000914078000000470001489800a0
:102220001e4fe800714a8000c00720000080600057
:10223000f40f500049033a000201200081782c007d
:10224000602021009e7d02000000000010c0b3004d
:10225000c42f020002000000c0c8bf000004e0005c
:102260000600320082002000915a2c0060202100dc
:102270009e7d020000000000050037009200200053
:10228000115b2c00602021009e7d020000000000f8
:1022900020c0b300c42f0200020000004603370034
:1022a000f0122000100798000040eb001047980043
:1022b0000b0037001e80fb009e4090008180fb00d9
:1022c00022242100e2c07800000047000148980065
:1022d0001e4fe8001e4090000040e80010479800a4
:1022e0001e409000e84f5000f2ff3600714a800017
:1022f000c007200000806000f40f500019033a006e
:10230000e200200081792c00602021009e7d0200e7
:102310000000000010c0b300c42f02000200000043
:1023200021242100602021001e7f02000000000007
:1023300020c0b300c42f0200020000001e033700bb
:10234000e0132000100798001e80fb00f1db8000e6
:10235000c708de00e3c060000000470001489800a5
:102360001e4fe800714a8000c00720000080600016
:10237000f40f5000fd023a00f1db8000001820004d
:102380008080600000082000808f500006003a0026
:10239000b2002000617a2c00602021009e7d0200a6
:1023a000000000000b003700f1db80000018200067
:1023b0008080600000102000808f500005003a00ef
:1023c000a2002000117b2c00602021009e7d0200d5
:1023d0000000000010c0b300c42f02000200000083
:1023e000f1db800000182000008060000000e000a9
:1023f0000600320082002000915a2c00602021004b
:102400009e7d0200000000000500370092002000c1
:10241000115b2c00602021009e7d02000000000066
:1024200020c0b300c42f020002000000e202370007
:10243000001f200010079800804d8000914d800003
:102440002679020000000000200798001e80fb0093
:10245000ae009000c808de00814078000000470010
:10246000014898001e4fe8001e80fb00ae0090005f
:102470008140780000004700014898001e4fe800a6
:10248000cd023700401f2000100798006800470069
:10249000d12a22001e7f02000000000050c0b300bd
:1024a000004f7800714a8000c00720000080600063
:1024b000f40f5000af023a00e2002000815f2c00d0
:1024c000602021009e7d02000000000010c0b300cb
:1024d000c42f02000200000012012000914f2c00c6
:1024e000602021009e7d02000000000020c0b3009b
:1024f000c42f020002000000af02370010142000b9
:10250000100798001e80fb00019820009140780081
:1025100000004700014898001e4fe800714a800003
:10252000c007200000806000f40f500093023a00c2
:10253000c2002000b17b2c00602021009e7d0200a3
:102540000000000010c0b300c42f02000200000011
:10255000019820009140780030c4b30080cf500033
:1025600006003a0072002000717c2c0060202100df
:102570009e7d020000000000050037007200200070
:10258000e17c2c00602021009e7d02000000000004
:1025900020c0b300c42f02000200000086023700f2
:1025a00040142000100798001e80fb00f1db800023
:1025b000cd08de00e1c0600000004700014898003f
:1025c0001e4fe800714a8000c007200000806000b4
:1025d000f40f50006b023a0012012000517d2c00d4
:1025e000602021009e7d02000000000010c0b300aa
:1025f000c42f020002000000f1db80000000220076
:10260000008060000000e000060032008200200030
:10261000915a2c00602021009e7d020000000000e5
:102620000500370092002000115b2c006020210083
:102630009e7d02000000000020c0b300c42f0200f5
:10264000020000005c023700a01f20001007980065
:102650001e80fb00514a8000c708de00e1c0600018
:1026600000004700014898001e4fe800714a8000b2
:10267000c007200000806000f40f500043023a00c1
:10268000d2002000617e2c00602021009e7d02008f
:102690000000000010c0b300c42f020002000000c0
:1026a000514a800000082000008060000000e00027
:1026b0000600320082002000915a2c006020210088
:1026c0009e7d0200000000000500370092002000ff
:1026d000115b2c00602021009e7d020000000000a4
:1026e00020c0b300c42f02000200000032023700f5
:1026f00030202000100798001e80fb0000004700db
:102700008040eb00014898001e4fe8001e80fb004f
:10271000e1962000914078000000470001489800b1
:102720001e4fe80024023700d00d2000100798004b
:102730001e80fb00714a8000c208de00ffc06000fe
:1027400000004700014898001e4fe800714a8000d1
:10275000c007200000806000f40f50000d023a0016
:1027600092002000317f2c00602021009e7d02001d
:102770000000000010c0b300c42f020002000000df
:10278000704a80004200de007f4060000080fb0055
:10279000801f7800a0512c00801f7800602021004d
:1027a000d488020000000000e487570020c0b30076
:1027b000c42f020002000000ff013700a00c20001f
:1027c000100798000040eb00104798000b003700fe
:1027d0001e80fb009e4090008180fb00e21e2100d5
:1027e000e2c0780000004700014898001e4fe80052
:1027f0001e4090000040e800104798001e409000e6
:10280000ef4f5000f2ff3600eb013700b00b200015
:10281000100798000040eb00104798000b003700ad
:102820001e80fb009e4090008180fb0092232100cf
:10283000e2c0780000004700014898001e4fe80001
:102840001e4090000040e800104798001e40900095
:10285000e84f5000f2ff3600714a8000c0072000a8
:1028600000806000f40f5000cc013a00e20020002c
:10287000c17f2c00602021009e7d0200000000002e
:1028800010c0b300c42f02000200000091232100f9
:10289000602021001e7f02000000000020c0b30065
:1028a000c42f020002000000c3013700f010200016
:1028b000100798001e80fb00014d8000c808de0054
:1028c0008140780000004700014898001e4fe80052
:1028d0001e80fb00014d8000814078000000470011
:1028e000014898001e4fe800714a8000c007200090
:1028f00000806000f40f5000aa013a00120120008d
:10290000a1802c00602021009e7d020000000000bc
:1029100010c0b300c42f020002000000004d800070
:10292000801f7800a0512c00801f780060202100bb
:10293000d488020000000000e487570020c0b300e4
:10294000c42f0200020000009b013700d01f2000ae
:10295000100798001e80fb0011498000c808de00a7
:102960008140780000004700014898001e4fe800b1
:102970001e80fb0011498000814078000000470064
:10298000014898001e4fe800714a8000c0072000ef
:1029900000806000f40f500084013a00e200200043
:1029a000b1812c00602021009e7d0200000000000b
:1029b00010c0b300c42f02000200000010498000c4
:1029c000801f7800a0512c00801f7800602021001b
:1029d000d488020000000000e487570020c0b30044
:1029e000c42f02000200000073013700301e2000d7
:1029f000100798001e80fb00f18d200091407800a8
:102a000000004700014898001e4fe8006a013700a7
:102a1000601e2000100798001e80fb00e18d200042
:102a20009140780000004700014898001e4fe800e0
:102a300061013700901e2000100798001e80fb00e7
:102a4000018e200091407800000047000148980066
:102a50001e4fe80058013700c01e200010079800e4
:102a6000714a8000c0072000808060004003200081
:102a7000808f500006003a001e80fb0000004700d7
:102a800011c0b300014898001e4fe8004a0137000a
:102a90001e80fb00000047008040eb0001489800ca
:102aa0001e4fe80044013700701420001007980002
:102ab0001e80fb00f1db8000ce08de00e1c060007c
:102ac00000004700014898001e4fe800714a80004e
:102ad000c007200000806000f40f500035013a006c
:102ae0009200200091822c00602021009e7d020037
:102af0000000000010c0b300c42f0200020000005c
:102b0000f1db800000002400008060000000e00095
:102b10000600320082002000915a2c006020210023
:102b20009e7d02000000000005003700920020009a
:102b3000115b2c00602021009e7d0200000000003f
:102b400020c0b300c42f0200020000001a013700a9
:102b5000a0142000100798001e80fb006193200045
:102b60009140780000004700014898001e4fe8009f
:102b700011013700401d2000100798001e80fb0047
:102b800061498000c808de008140780000004700ed
:102b9000014898001e4fe8001e80fb00614980003c
:102ba0008140780000004700014898001e4fe8006f
:102bb00001013700801d2000100798001e80fb00d7
:102bc00081498000c808de0081407800000047008d
:102bd000014898001e4fe8001e80fb0081498000dc
:102be0008140780000004700014898001e4fe8002f
:102bf000f1003700001d200010079800b04d800044
:102c0000c14d8000267902000000000030079800c6
:102c10001e80fb00be009000c808de0081407800e6
:102c200000004700014898001e4fe8001e80fb008e
:102c3000be009000814078000000470001489800e5
:102c40001e4fe800dc003700c01d20001007980070
:102c50001e80fb00d14d8000c808de008140780056
:102c600000004700014898001e4fe8001e80fb004e
:102c7000d14d800081407800000047000148980055
:102c80001e4fe800cc00370034c9bf000080fb00b5
:102c9000e40f500027003200e40f500007003c0012
:102ca000e20f500015003200e20f50001a003c0005
:102cb000e10f50000a00320041003700e60f5000db
:102cc0002a003200e60f500021003500e70f5000c7
:102cd0002d003200e80f500032003200380037007b
:102ce000001520001007980081af210040b321009b
:102cf0001e7f020000000000310037000016200097
:102d00001007980081af2100d0b321001e7f020080
:102d1000000000002a00370000172000100798006c
:102d200081af210060b421001e7f0200000000007e
:102d300023003700001820001007980081af210001
:102d4000f0b421001e7f0200000000001c003700cc
:102d5000001920001007980081af210080b52100e4
:102d60001e7f02000000000015003700001a20003e
:102d70001007980081af210010b621001e7f0200cd
:102d8000000000000e003700001b20001007980014
:102d900081af2100a0b621001e7f020000000000cc
:102da00007003700001c20001007980081af2100a9
:102db00030b721001e7f020000000000000000006c
:102dc00081af2100680047001e7f02000000000064
:102dd000d0c0b300004f780077003700001e2000fd
:102de000100798001e80fb00e1498000c908de0042
:102df000e1c0600000004700014898001e4fe80055
:102e00006d003700000000006b003700000000007c
:102e10006900370000000000670037000000000074
:102e2000650037000000000063003700000000006c
:102e300061003700000000005f0037000000000064
:102e40005d003700000000005b003700000000005c
:102e50005900370000000000570037000000000054
:102e6000550037000000000053003700000000004c
:102e700051003700000000004f0037000000000044
:102e80004d003700000000004b003700000000003c
:102e90004900370000000000470037000000000034
:102ea000450037000000000043003700000000002c
:102eb00041003700000000003f0037000000000024
:102ec0003d003700000000003b003700000000001c
:102ed0003900370000000000370037000000000014
:102ee000350037000000000033003700000000000c
:102ef00031003700000000002f0037000000000004
:102f00002d003700000000002b00370000000000fb
:102f100029003700000000002700370000000000f3
:102f200025003700000000002300370000000000eb
:102f300021003700000000001f00370000000000e3
:102f40001d003700000000001b00370000000000db
:102f500019003700000000001700370000000000d3
:102f600015003700000000001300370000000000cb
:102f700011003700000000000f00370000000000c3
:102f80000d003700000000000b00370000000000bb
:102f900009003700000000000700370000000000b3
:102fa00005003700000000000300370000000000ab
:102fb00001003700000000001e4078000004e0001f
:102fc00006003200680047001e4178009e00900015
:102fd00090000700a00020004c0007001000200017
:102fe0004e6a0200000000000080fa0000000600a7
:102ff0000a00fa0030079800014f98000040eb00eb
:10300000004f7800e2004700000009008018eb0044
:103010008058eb00fe7302000000000034730200d1
:103020000000000000c5b300104798000e48900053
:10303000e14f500007003a001e4090000080fb0066
:1030400000004000004078000004a00020479800e5
:10305000030037001e4090000040400020479800c9
:103060003e0090004800de000040780030479800a5
:103070003e00900000407800404798001c00370058
:103080001e80fb0000004700204090001e4fe8001b
:10309000da73020000000000347302000000000038
:1030a0000e489000e14f500015003200c110800022
:1030b00000002800008060000000e0000c003200ea
:1030c000d200200021832c00602021009e7d020080
:1030d0000000000020c0b300c42f02000200000066
:1030e000803e20008a6a02000000000005003700d0
:1030f0001e407800e24f5000e1ff3600010037002b
:10310000000000000080fa00000006000200fa0043
:10311000000f7800020037000000000000000000ef
:103120001e0fe9001e0078000000e000faff3a00e0
:103130000080fa00000006000400fa000000eb0026
:10314000000f78000000eb0010079800cc7202001e
:10315000000000000000eb00d87202000000000038
:1031600000002a00000f7800f00f200010079800e0
:103170009e0090001e007800f07302000000000026
:103180000080fa00000006000200fa00004f7800fc
:103190001e407800da73020000000000000000000a
:1031a000c0108000610060000000e000fcff3a00f9
:1031b0000000000050048000640060000000e00097
:1031c000fcff32008a40a90000000000c11080000e
:1031d00000002400008060000000e000fbff3a00d7
:1031e0000080fa00000006000200fa00000f7800dc
:1031f0001e0078004800de0000407800e2ff070073
:103200001e00780000407800dfff07000080fa0011
:10321000000006000800fa00100798002107980037
:10322000624798000040eb00004f780034730200c2
:1032300000000000fe73020000000000000000001b
:10324000b0108000610060000000e000fcff3a0068
:103250008620a90000cab300da7302000000000053
:1032600000000000c0108000610060000000e0006d
:10327000fcff3a0000000000500480006400600081
:103280000000e000fcff32008a40a90000000000be
:10329000c110800000002400008060000000e000f9
:1032a000fbff3a002e0090004800de00004078004e
:1032b000b5ff07002e00900000407800b2ff070025
:1032c000070037001e4fe8001e00900010407800f5
:1032d0009e0090008100e80011079800aaff0700f7
:1032e0006e4090009e40780080cf5000f5ff39007e
:1032f00034730200000000000674020000000000a9
:1033000000000000b0108000640060000000e000d9
:10331000fcff3a00500020008a6a02000000000012
:103320000080fa00000006000600fa000000eb0032
:10333000000f78000000eb00100798000000eb0081
:10334000000f7800430037003473020000000000d3
:10335000fe7302000000000000000000b0108000ba
:10336000610060000000e000fcff3a008620a90038
:1033700000cab300da730200000000000000000081
:10338000c0108000610060000000e000fcff3a0017
:103390000000000050048000640060000000e000b5
:1033a000fcff32008a40a90000000000c11080002c
:1033b00000002400008060000000e000fbff3a00f5
:1033c0001e0090004800de00004078006eff0700fd
:1033d0001e009000004078006bff07000000eb002b
:1033e000200798000000eb00200798000500370038
:1033f0000040eb0064ff07002e0090000000e80092
:1034000020079800ae009000f0072000808f500049
:10341000f7ff36003473020000000000067402005b
:103420000000000000000000b01080006400600098
:103430000000e000fcff3a00500020008a6a020011
:10344000000000001e0090000008b0001007980067
:103450001e0fe800002020009e007800808f5000a2
:10346000b9ff36000080fa00000006002400fa00d0
:10347000206798000000eb00100798000000eb00a8
:10348000200798000000eb00300798000040eb0098
:10349000004f7800050037001e80fb000000470049
:1034a0008040eb00014898001e4fe8001e40780065
:1034b000f84f5000f8ff36007f0607002e6090009e
:1034c0000080fb00cf80de004207200003002000c8
:1034d000820f5000838f5800f6053e000060010007
:1034e0007400370092003700a1003700b0003700a9
:1034f000bf003700dd003700fb003700190137003f
:10350000280137003701370046013700eb05370047
:10351000540137006201370071013700e7053700b9
:103520008001370099013700e4053700a701370013
:10353000bb013700ca013700d9013700e801370065
:10354000de053700dd053700dc053700f9013700ff
:10355000da053700d90537000602370015023700b3
:1035600024023700d5053700d4053700d3053700ce
:10357000d2053700d1053700d00537002d023700be
:103580003b0237004f0237005e023700cb053700a1
:10359000ca053700c90537006a023700c70537007a
:1035a000c60537007f023700c4053700c305370062
:1035b0008c023700c1053700c0053700bf05370052
:1035c0009b023700ae023700bc053700bb05370051
:1035d000ba053700b9053700b8053700b80237001b
:1035e000c7023700cf023700dd023700ec02370098
:1035f000b2053700fa023700090337001c03370011
:103600002f0337004203370041043700ab05370072
:103610005804370067043700760437008b043700fe
:103620004b04370099043700a4053700a305370081
:10363000a2053700a1053700a00537004503370074
:103640005a0337009d0537009c0537007703370084
:103650007f0337008e033700980537009705370042
:103660009b03370095053700940537009305370015
:10367000a3033700b3033700c60337008f053700b5
:103680008e0537008d0537008c0537008b05370018
:10369000d4033700770537008805370087053700e2
:1036a000e0033700ef033700f7033700ff0337006d
:1036b00007043700500f20001007980068004700eb
:1036c00082c0b3009e009000830507008e489000e2
:1036d000e01f2100014878009e489000f01f210063
:1036e00001487800ae489000002021000148780091
:1036f000be4890001020210001487800ce4890007c
:103700002020210001487800de4890003020210070
:1037100001487800ee4890004020210001487800e0
:10372000fe489000502021000148780068053700cd
:103730000000eb00100798006800470022c0b300ab
:103740009e009000640507000e4890000080fb007a
:103750004800dd00f04b88001e4890008080fb0090
:10376000f04b800001007000f04b880058053700d6
:1037700030002000100798006800470022c0b30006
:103780009e009000540507000e4890000080fb004a
:103790004800dd00104d88001e4890008080fb002e
:1037a000104d800001007000104d88004805370062
:1037b00060002000100798006800470022c0b30096
:1037c0009e009000440507000e4890000080fb001a
:1037d0004800dd00204d88001e4890008080fb00de
:1037e000204d800001007000204d88003805370012
:1037f00090002000100798000040eb00004f780078
:10380000050037001e80fb00a11621000041eb00df
:10381000827078001e4fe8001e407800f34f500081
:10382000f8ff36006800470042c1b3009e009000d8
:10383000290507000040eb00004f78000700370023
:103840001e80fb009e80fb00810047000149900024
:10385000a1162100827078001e4fe8001e407800fb
:10386000f34f5000f6ff360019053700e001200045
:10387000100798000040eb00004f7800050037006b
:103880001e80fb00311821000041eb00827078009f
:103890001e4fe8001e407800e54f5000f8ff36004c
:1038a0006800470062c0b3009e0090000a05070050
:1038b0000040eb00004f7800070037001e80fb003f
:1038c0009e80fb00810047000149900031182100d3
:1038d000827078001e4fe8001e407800e54f5000cf
:1038e000f6ff3600fa043700400220001007980067
:1038f0000040eb00004f7800050037001e80fb0001
:10390000911821000041eb00827078001e4fe80002
:103910001e407800f84f5000f8ff3600680047005e
:1039200092c1b3009e009000eb0407000040eb0042
:10393000004f7800070037001e80fb009e80fb00d0
:1039400081004700014990009118210082707800a1
:103950001e4fe8001e407800f84f5000f6ff36007a
:10396000db043700e00320001007980068004700e0
:1039700022c0b3009e009000d70407000e489000bc
:103980000080fb004800dd00e04b88001e489000ee
:103990008080fb00e04b800001007000e04b88005d
:1039a000cb0437001004200010079800680047007f
:1039b00022c0b3009e009000c70407000e4890008c
:1039c0000080fb004800dd00d04b88001e489000be
:1039d0008080fb00d04b800001007000d04b88003d
:1039e000bb0437004004200010079800680047001f
:1039f00022c0b3009e009000b70407000e4890005c
:103a00000080fb004800dd00704c88001e489000dc
:103a10008080fb00704c800001007000704c8800ba
:103a2000ab043700700420001007980068004700be
:103a300022c0b3009e009000a70407000e4890002b
:103a40000080fb004800dd00804c88001e4890008c
:103a50008080fb00804c800001007000804c88005a
:103a60009b043700200520001007980068004700dd
:103a700012c0b3009e009000970407000e4890000b
:103a8000614060000080fb0061006000e1db8000bd
:103a90000100a10001007000e0db88008c04370009
:103aa00050052000100798006800470012c0b300be
:103ab0009e009000880407000e489000614060005e
:103ac0000080fb006100600000004000e1db80003e
:103ad0000110a10001007000e0db88007c043700c9
:103ae00080052000100798006800470012c0b3004e
:103af0009e009000780407000e489000634060002c
:103b00000080fb00630060004800dd00e2db800015
:103b1000f1cf2f008100610001007000e0db880020
:103b20006b043700e005200010079800680047008c
:103b300022c0b3009e009000670407000e4890006a
:103b40000080fb004800dd00604d88001e489000aa
:103b50008080fb00604d800001007000604d880097
:103b6000604d80008000eb006279020000000000e0
:103b700002002000a34724000a7802000000000091
:103b800080468800914688005104370020062000b6
:103b9000100798006800470022c0b3009e00900004
:103ba0004d0407000e4890000080fb004800dd0037
:103bb000d04c88001e4890008080fb00d04c8000d4
:103bc00001007000d04c880041043700a00620009e
:103bd000100798006800470052c0b3009e00900094
:103be0003d0407000040eb00004f7800080037005c
:103bf0001e80fb009e80fb008100470081489000f2
:103c000001417800312a2200827078001e4fe800be
:103c10001e407800e44f5000f5ff36002c043700ba
:103c200010072000100798006800470022c0b3006a
:103c30009e009000280407000e4890000080fb00c2
:103c40004800dd00e04c88001e4890008080fb00aa
:103c5000e04c800001007000e04c88001c0437003c
:103c600050072000100798006800470022c0b300ea
:103c70009e009000180407000e4890000080fb0092
:103c80004800dd00f04c88001e4890008080fb005a
:103c9000f04c800001007000f04c88000c043700ec
:103ca00090072000100798006800470012c0b3007a
:103cb0009e009000080407000e48900061406000dc
:103cc0000080fb00610060004700dd00c14a800009
:103cd0000170a10001007000c04a8800fc03370099
:103ce000c0072000100798006800470052c0b300ca
:103cf0009e009000f80307000040eb00004f7800a2
:103d0000080037001e80fb009e80fb0081004700fa
:103d10008148900001417800e129220082707800fa
:103d20001e4fe8001e407800e44f5000f5ff3600bb
:103d3000e7033700300820001007980068004700ac
:103d400022c0b3009e009000e30307000e489000dd
:103d50000080fb004800dd00504b88001e489000aa
:103d60008080fb00504b800001007000504b8800a9
:103d7000d70337006008200010079800680047004c
:103d800022c0b3009e009000d30307000e489000ad
:103d90000080fb004800dd00a04c88001e48900019
:103da0008080fb00a04c800001007000a04c8800c7
:103db000c7033700a00820001007980068004700dc
:103dc00022c0b3009e009000c30307000e4890007d
:103dd0000080fb004800dd00b04c88001e489000c9
:103de0008080fb00b04c800001007000b04c880067
:103df000b7033700e008200010079800680047006c
:103e000022c0b3009e009000b30307000e4890004c
:103e10000080fb004800dd00c04c88001e48900078
:103e20008080fb00c04c800001007000c04c880006
:103e3000a7033700500920001007980068004700ca
:103e400012c0b3009e009000a30307000e4890002c
:103e50000004e0009b033200714a800030f82f001c
:103e6000008060004001b300704a8800980337006a
:103e7000800920001007980068004700b2c0b30016
:103e80009e009000940307000040eb00004f780074
:103e9000080037001e80fb009e80fb008100470069
:103ea000814890000141780041282200827078000a
:103eb0001e4fe8001e407800ea4f5000f5ff360024
:103ec00083033700500a200010079800680047005d
:103ed00022c0b3009e0090007f0307000e489000b0
:103ee0000080fb004800dd00904c88001e489000d8
:103ef0008080fb00904c800001007000904c880096
:103f000073033700900a20001007980068004700ec
:103f100012c0b3009e0090006f0307000e4890008f
:103f2000614060000080fb00610060004b00dd002c
:103f3000e1db800001b0a10001007000e0db88003f
:103f400063033700c00a200010079800680047008c
:103f500012c0b3009e0090005f0307000e4890005f
:103f6000614060000080fb0061006000714a8000d9
:103f70000100a10001007000704a8800704a8000b2
:103f8000610060000000e00050033200714a8000d0
:103f900030f82f00008060008001b300704a880074
:103fa0004b033700200b20001007980068004700e3
:103fb00012c0b3009e009000470307000e48900017
:103fc000614060000080fb00610060004200dd0095
:103fd000614a80000120a10001007000604a880051
:103fe0003b033700500b2000100798006800470083
:103ff00012c0b3009e009000370307000e489000e7
:104000000004e00008003200714a800030f82f0000
:1040100000806000c001b300704a880010c0b30087
:10402000bee8b7002a033700be68ef002803370058
:10403000000e20001007980068004700f2c0b3008f
:104040009e009000240307000040eb00004f780022
:10405000070037001e80fb009e80fb0081004700a8
:1040600001499000f1282200827078001e4fe8007c
:104070001e407800ee4f5000f6ff36001403370064
:10408000000f2000100798006800470012c0b3001e
:104090009e009000100307000e48900061406000f1
:1040a0000080fb00610060004b00dd00c14a800021
:1040b00001b0a10001007000c04a8800040337006d
:1040c00050102000100798006800470022c0b3007d
:1040d0009e009000000307000e4890000080fb0047
:1040e0004800dd00504c88001e4890008080fb0096
:1040f000504c800001007000504c8800f4023700e2
:1041000090102000100798006800470012c0b3000c
:104110009e009000f00207000e4890008ce9b70066
:10412000eb023700c010200010079800680047001d
:1041300012c0b3009e009000e70207000e489000f6
:10414000614060000080fb0061006000f1db8000e6
:104150000100a10001007000f0db8800dc023700e4
:1041600070112000100798006800470022c0b300bb
:104170009e009000d80207000e4890000080fb00cf
:104180004800dd00804b88001e4890008080fb00c6
:10419000804b800001007000804b8800cc0237000b
:1041a00030112000100798006800470022c0b300bb
:1041b0009e009000c80207000e4890000080fb009f
:1041c0004800dd00904b88001e4890008080fb0076
:1041d000904b800001007000904b8800bc023700bb
:1041e000b0112000100798006800470012c0b3000b
:1041f0009e009000b80207000e48900061406000e9
:104200000080fb00610060004300dd00b14a8000d7
:104210000130a10001007000b04a8800ac023700f4
:10422000e0112000100798006800470092c0b3001a
:104230009e009000a80207000040eb00004f7800ad
:10424000070037001e80fb009e80fb0081004700b6
:104250000149900081ab2100827078001e4fe80078
:104260001e407800e84f5000f6ff360098023700f5
:10427000c0122000100798006800470012c0b30069
:104280009e009000940207000e4890000004e00099
:1042900009003200714a800030f82f0080806000f1
:1042a0000003200001007000704a880010c0b300b5
:1042b000c0e8b70086023700c068ef00840237000c
:1042c000f0122000100798006800470092c0b30069
:1042d0009e009000800207000040eb00004f780035
:1042e000070037001e80fb009e80fb008100470016
:1042f0000149900021242100827078001e4fe800bf
:104300001e407800e84f5000f6ff3600700237007c
:10431000e0132000100798006800470012c0b300a7
:104320009e0090006c0207000e4890006340600001
:104330000080fb00630060004700dd00f2db8000ce
:10434000f1e72f008100610001007000f0db8800c0
:104350005f023700001f2000100798006800470028
:1043600022c0b3009e0090005b0207000e48900040
:104370000080fb004800dd00200798001e489000e8
:104380000080fb00ae009000010070002007980044
:104390002e0090008000eb00627902000000000017
:1043a000804d8800914d8800490237000040eb00a5
:1043b000004f7800050037001e80fb00d12a220044
:1043c0000041eb00827078001e4fe8001e4078002c
:1043d000e44f5000f8ff3600401f200010079800ff
:1043e0006800470052c0b3009e0090003a020700e8
:1043f0000040eb00004f7800080037001e80fb00f3
:104400009e80fb00810047008148900001417800b8
:10441000d12a2200827078001e4fe8001e407800ea
:10442000e44f5000f5ff3600290237001014200039
:10443000100798006800470012c0b3009e0090006b
:10444000250207000e48900080e9b70020023700df
:1044500040142000100798006800470012c0b30005
:104460009e0090001c0207000e4890006140600012
:104470000080fb00610060004d00dd00f1db80008a
:1044800001d0a10001007000f0db880010023700ad
:10449000a01f2000100798006800470012c0b3005a
:1044a0009e0090000c0207000e48900061406000e2
:1044b0000080fb00610060004700dd00514a800081
:1044c0000170a10001007000504a8800000237000e
:1044d00030202000100798006800470022c0b30079
:1044e0009e009000fc0107006e69ef009e4890005e
:1044f0006ec9bf0000c070006ee9b700f40137005c
:10450000d00d2000100798006800470012c0b300cb
:104510009e009000f00107000e4890007f40600070
:104520000080fb007f0060004200dd00724a8000d6
:1045300031f82f008100610001007000704a88008e
:10454000e3013700a00c2000100798006800470026
:1045500002c1b3009e009000df0107000040eb00a5
:10456000004f7800070037001e80fb009e80fb0094
:104570008100470001499000e11e2100827078000f
:104580001e4fe8001e407800ef4f5000f6ff360047
:10459000cf013700b00b20001007980068004700db
:1045a00092c0b3009e009000cb0107000040eb00da
:1045b000004f7800070037001e80fb009e80fb0044
:1045c000810047000149900091232100827078000a
:1045d0001e4fe8001e407800e84f5000f6ff3600fe
:1045e000bb013700f010200010079800680047005a
:1045f00022c0b3009e009000b70107000e48900053
:104600000080fb004800dd00004d88001e4890003f
:104610008080fb00004d800001007000004d88008c
:10462000ab013700d01f200010079800680047003a
:1046300022c0b3009e009000a70107000e48900022
:104640000080fb004800dd00104988001e489000f3
:104650008080fb0010498000010070001049880034
:104660009b013700301e20001007980068004700ab
:1046700012c0b3009e009000970107000e48900002
:10468000dfe8b70092013700601e20001007980095
:104690006800470012c0b3009e0090008e01070022
:1046a0000e489000dee8b70089013700901e200018
:1046b000100798006800470012c0b3009e009000e9
:1046c000850107000e489000e0e8b7008001370040
:1046d000c01e2000100798006800470012c0b300f9
:1046e0009e0090007c0107000e4890006140600031
:1046f0000080fb00610060004600dd00514a800040
:104700000160a10001007000504a8800700137006c
:1047100070142000100798006800470012c0b30012
:104720009e0090006c0107000e4890006140600000
:104730000080fb00610060004e00dd00f1db8000c6
:1047400001e0a10001007000f0db8800600137008b
:10475000a0142000100798006800470012c0b300a2
:104760009e0090005c0107000e48900036e9b700fb
:1047700057013700401d20001007980068004700cf
:1047800022c0b3009e009000530107000e48900025
:104790000080fb004800dd00604988001e48900052
:1047a0008080fb0060498000010070006049880043
:1047b00047013700801d200010079800680047005f
:1047c00022c0b3009e009000430107000e489000f5
:1047d0000080fb004800dd00804988001e489000f2
:1047e0008080fb00804980000100700080498800c3
:1047f00037013700001d20001007980068004700af
:1048000022c0b3009e009000330107000e489000c4
:104810000080fb004800dd00300798001e48900033
:104820000080fb00be00900001007000300798007f
:104830003e0090008000eb00627902000000000062
:10484000b04d8800c14d880021013700c01d2000f7
:10485000100798006800470022c0b3009e00900037
:104860001d0107000e4890000080fb004800dd009d
:10487000d04d88001e4890008080fb00d04d800005
:1048800001007000d04d8800110137000040eb009e
:10489000004f7800050037001e80fb0081af21002b
:1048a0000041eb00827078001e4fe8001e40780047
:1048b000ec4f5000f8ff3600bcc9bf000080fb0081
:1048c000e40f500062003200e40f500007003c008b
:1048d000e20f500028003200e20f500041003c007f
:1048e000e10f50000a003200e0003700e60f5000f0
:1048f0008d003200e60f500070003500e70f5000c9
:10490000a4003200e80f5000bd003200d70037008d
:1049100000152000100798006800470092c0b300ff
:104920009e009000ec0007000040eb00004f780074
:104930000d0037001e80fb009e80fb0081004700b9
:104940000149900041b32100827078001e80fb0075
:104950009e80fb00810047000149900081af21004b
:10496000827078001e4fe8001e407800e84f50002b
:10497000f0ff3600be003700001620001007980038
:104980006800470092c0b3009e009000d20007006c
:104990000040eb00004f78000e0037001e80fb0047
:1049a0009e80fb00810047008148900052b32100a7
:1049b00000004100014898001e80fb009e80fb0023
:1049c000810047000149900081af2100827078008a
:1049d0001e4fe8001e407800e84f5000efff360001
:1049e000a300370000172000100798006800470058
:1049f00092c0b3009e009000b70007000040eb009b
:104a0000004f78000e0037001e80fb009e80fb00e8
:104a1000810047008148900042b32100000041001e
:104a2000215098001e80fb009e80fb008100470003
:104a30000149900081af2100827078001e4fe8008c
:104a40001e407800e84f5000efff36008800370026
:104a500000182000100798006800470092c0b300bb
:104a60009e0090009c0007000040eb00004f780083
:104a70000e0037001e80fb009e80fb008100470077
:104a80008148900052b32100000041002158980055
:104a90001e80fb009e80fb008100470001499000c2
:104aa00081af2100827078001e4fe8001e40780020
:104ab000e84f5000efff36006d003700001920006e
:104ac000100798006800470092c0b3009e00900055
:104ad000810007000040eb00004f78000e00370017
:104ae0001e80fb009e80fb008100470081489000f3
:104af00042b3210000004100416098001e80fb008d
:104b00009e80fb00810047000149900081af210099
:104b1000827078001e4fe8001e407800e84f500079
:104b2000efff360052003700001a200010079800ef
:104b30006800470092c0b3009e0090006600070026
:104b40000040eb00004f78000e0037001e80fb0095
:104b50009e80fb00810047008148900052b32100f5
:104b600000004100416898001e80fb009e80fb0011
:104b7000810047000149900081af210082707800d8
:104b80001e4fe8001e407800e84f5000efff36004f
:104b900037003700001b200010079800680047000e
:104ba00092c0b3009e0090004b0007000040eb0055
:104bb000004f78000e0037001e80fb009e80fb0037
:104bc000810047008148900042b32100000041006d
:104bd000617098001e80fb009e80fb0081004700f2
:104be0000149900081af2100827078001e4fe800db
:104bf0001e407800e84f5000efff36001c003700e1
:104c0000001c2000100798006800470092c0b30005
:104c10009e009000300007000040eb00004f78003d
:104c20000e0037001e80fb009e80fb0081004700c5
:104c30008148900052b32100000041006178980043
:104c40001e80fb009e80fb00810047000149900010
:104c500081af2100827078001e4fe8001e4078006e
:104c6000e84f5000efff3600010037000000000061
:104c700017003700001e200010079800680047004a
:104c800012c0b3009e009000130007000e48900071
:104c9000614060000080fb00610060004900dd00b1
:104ca000e14980000190a10001007000e049880006
:104cb000070037000000000005003700000000007a
:104cc0000300370000000000010037000000000072
:104cd0000080fa00000006000600fa00000f7800cd
:104ce000110798004247980034730200000000004a
:104cf000fe7302000000000000000000b010800001
:104d0000610060000000e000fcff3a008620a9007e
:104d100000cab300da7302000000000000000000c7
:104d2000c0108000610060000000e000fcff3a005d
:104d30000000000050048000640060000000e000fb
:104d4000fcff32008a40a90000000000c110800072
:104d500000002400008060000000e000fbff3a003b
:104d60001e0090004800de0000407800da73020068
:104d70000000000000000000c01080006100600022
:104d80000000e000fcff3a0000000000500480003a
:104d9000640060000000e000fcff32008a40a900cf
:104da00000000000c11080000000240000806000ae
:104db0000000e000fbff3a001e0090000040780079
:104dc000da7302000000000000000000c010800044
:104dd000610060000000e000fcff3a0000000000fd
:104de00050048000640060000000e000fcff32001e
:104df0008a40a90000000000c110800000002400cb
:104e0000008060000000e000fbff3a003473020005
:104e100000000000fe73020000000000000000001f
:104e2000b0108000610060000000e000fcff3a006c
:104e3000000000008a40a90010cab300da73020023
:104e400000000000000000005004800064006000ca
:104e50000000e000fcff3200000000004110800074
:104e600000002400008060000000e000fbff3a002a
:104e70008a40a9004e4090000080fb00823e200046
:104e80009e0078008c730200000000003473020062
:104e90000000000006740200000000000000000096
:104ea000b0108000640060000000e000fcff3a00e9
:104eb0000080fa00000006000200fa0001168000df
:104ec00030ff2f0000806000001688002016800050
:104ed0000030a000201688000040eb00004f780052
:104ee0000b003700201680000020a000201688004c
:104ef0002800090000000000201680000020a1000a
:104f00002016880028000900000000001e4fe8005d
:104f10001e407800e84f5000f2ff36002016800057
:104f20000020a10020168800201680000030a1007b
:104f300020168800280009000000000020168000cc
:104f40000020a000201688002800090000000000b2
:104f5000201680000030a000201688000080fa0093
:104f6000000006003600f800809fbe00829fbe0051
:104f7000849fbe00869fbe00881f78000000fa0054
:104f80008e40a900000000001e7602000000000014
:104f90000004e000fcff320032c9bf000084fb00c7
:104fa000a6760200000000008040780040ae21009c
:104fb00001707c00914a80000008200000806000a1
:104fc0000000e0000f003a0032c9bf00e24f50007d
:104fd0000c00360052e9a800a01780000010a000c5
:104fe000a0178800714a800000002800008060003f
:104ff0000000e00003003a004fe9a80070c1b300d0
:10500000b3e8b70032c9bf000040e80032e9b7009a
:105010000080fa004f0478004f03be004f02be002c
:105020004f01be004f00be003600f90000400600f0
:105030003600f800809fbe00829fbe00849fbe00a5
:10504000869fbe000200fa0087c0a9000000000091
:1050500018760200000000000004e000fcff3200af
:105060009476020000000000004f780008c8bf00de
:105070000040e800104798001e4190008180200009
:105080008248780008c8bf000080fb001e417800fd
:1050900061aa2000827078004d49a8000080fa00c3
:1050a0004f03be004f02be004f01be004f00be00c6
:1050b0003600f900004006003600f800809fbe0070
:1050c000829fbe00849fbe00869fbe00881f78001e
:1050d0000000fa008560a9000000000012760200be
:1050e000000000000004e000fcff32001ac9bf000d
:1050f0000084fb00827602000000000080407800ff
:10510000f0a9210001707c001ac9bf000040e8002e
:105110001ae9b7001ac9bf00e44f50000400360076
:10512000a11780000000280001007000a01788006f
:105130000080fa004f0478004f03be004f02be000b
:105140004f01be004f00be003600f90000400600cf
:10515000809fbe000000fa0087a0a90040c0b300f5
:1051600040e9b700714380006044800080805000b7
:10517000703e2000808f500053003600714a80003e
:10518000c007200000806000fc0f50001c003200af
:10519000714a8000c00720008080600080032000ea
:1051a000808f500016003200714a8000c007200036
:1051b0008080600000032000808f500010003200cb
:1051c000714a8000c007200000806000f00f50008e
:1051d0000b003200714a8000c00720000080600090
:1051e000ec0f500006003200714a8000c00720001a
:1051f0008080600000022000808f500023003a0071
:105200005249a80040c0b30040e9b7004fe9a800e8
:1052100030c0b300b3e8b700acc8bf000040e8003e
:10522000ace8b700714a8000c00720000080600031
:10523000fc0f500006003200714a8000c0072000b9
:105240008080600080032000808f50001b003a00a7
:10525000acc8bf00e14f50001a003e008043800000
:10526000d0448800201680000010a000201688007e
:10527000e0db800000e0a000e0db88001628ef0003
:1052800010c0b300b8e8b7000f003700804a8000b4
:10529000640060000000e000010032005249a800f4
:1052a000714a8000c007200000806000f40f5000a9
:1052b00005003a005249a800030037000000000032
:1052c0000100370000000000704380006044880047
:1052d0000080fa004f00be00004006003600f800d3
:1052e000809fbe00829fbe00849fbe00869fbe003e
:1052f000889fbe000000fa008680a90071438000ec
:10530000d040800080805000804b8000808f500013
:1053100067003900b04080000000e800b04088001d
:1053200052c9a800714a8000c007200000806000b8
:10533000e80f500018003200714a8000c0072000ba
:1053400000806000f00f500013003200714a8000ae
:10535000c007200000806000fc0f50000e003200eb
:10536000714a8000c0072000808060008003200018
:10537000808f500008003200714a8000c007200072
:1053800000806000f80f5000030032004fe9a800d1
:1053900090c0b300b3e8b700714a8000c007200096
:1053a00000806000fc0f500006003200714a80004f
:1053b000c00720008080600080032000808f5000a4
:1053c0003b003a00904a8000640060000000e0006a
:1053d00004003a00004b8000700060000000e00014
:1053e00033003200104d80008000eb006279020033
:1053f000000000000002be00804680009146800050
:105400000001be000400be00107a0200000000008f
:10541000e4780200000000000000780080007800be
:10542000b0408000808f500021003e002016800098
:105430000010a10020168800e0db800000e0a10041
:10544000e0db8800ac68ef00b04080008000eb003b
:1054500062790200000000000004be00104d8000d0
